:020000040800F2
:10000000103B01209D010008A92F0008912E000837
:10001000A52F00084D080008293E00080000000038
:100020000000000000000000000000006135000832
:10003000870C000800000000E52F00087335000859
:10004000B7010008B7010008B7010008B7010008B0
:10005000B7010008B7010008B7010008B7010008A0
:10006000B7010008B7010008B7010008B701000890
:10007000B7010008B7010008490C0008B7010008E3
:10008000B7010008B7010008B7010008B701000870
:10009000B7010008B7010008B7010008B701000860
:1000A000B7010008B7010008B7010008B701000850
:1000B000B7010008B7010008B7010008B701000840
:1000C000B7010008B7010008B7010008B701000830
:1000D000B7010008B7010008B7010008B701000820
:1000E000B7010008B7010008B7010008B701000810
:1000F000B7010008B7010008B7010008B701000800
:10010000B7010008B7010008B7010008B7010008EF
:10011000B7010008B701000849360008B701000818
:10012000590C0008B7010008B7010008B701000822
:10013000B7010008B7010008B7010008B7010008BF
:10014000B7010008B7010008B7010008B7010008AF
:10015000B7010008B7010008B7010008B70100089F
:10016000B7010008B7010008B7010008B70100088F
:10017000B7010008B7010008B7010008000000003F
:10018000B7010008B7010008DFF80CD000F094FABE
:1001900000480047F14D0008103B01200648804709
:1001A00006480047FEE7FEE7FEE7FEE7FEE7FEE75C
:1001B000FEE7FEE7FEE7FEE7F935000889010008E3
:1001C0002DE9F05F0546002092469B46884606468C
:1001D000814640241BE0284641464746224600F01F
:1001E000A2F853465A46C01A914110D311461846F8
:1001F000224600F089F82D1A67EB01084F46224687
:100200000120002100F080F817EB00094E41201E6C
:10021000A4F10104DFDC484631462A464346BDE8E6
:10022000F09F2DE9F0410024061B254671F10006E0
:1002300005DA01240027D0EB070067EB0101161E49
:1002400073F1000605DA0027D2EB0702012567EB00
:100250000303FFF7B5FF86460E4617469C46AC42A1
:1002600004D00025D0EB050E65EB010624B100207B
:10027000D2EB000760EB030C704631463A4663460A
:10028000BDE8F081D2B201E000F8012B491EFBD29B
:1002900070470022F6E710B513460A460446194691
:1002A000FFF7F0FF204610BD421C10F8011B00298B
:1002B000FBD1801A704700F0004230F000400AD0B5
:1002C000C10D01F56071C0F3160042EA0151C20888
:1002D00040071143704700200146704730B50B4678
:1002E000014600202022012409E021FA02F59D4266
:1002F00005D303FA02F5491B04FA02F52844151E3A
:10030000A2F10102F1DC30BD202A04DB203A00FA20
:1003100002F1002070479140C2F1200320FA03F35C
:10032000194390407047202A04DB203A21FA02F05A
:100330000021704721FA02F3D040C2F1200291401F
:100340000843194670472DE9FE4F804681EA0300B5
:10035000C00F0C46009021F0004123F00045B8EB9F
:100360000200A94105D24046214690461C460B4654
:10037000024623F00040104347D0270DC7F30A0080
:10038000C3F30A510290401A019040286BDAC3F37C
:10039000130040F4801B0098924620B10023D2EB5A
:1003A000030A63EB0B0B01985946C0F1400250461B
:1003B000FFF7AAFF06460D4650465946019A00F03F
:1003C0008DF910EB08006141002487EA115284EA9C
:1003D000E7731A4340D0009A62B3019A012A4FEAA8
:1003E000075215DC001B61EB02014FF0004202EAEC
:1003F0000752CDE90042001C41F5801132462B46E0
:1004000000F08DF903B0BDE8F08F40462146F9E7D2
:10041000001B61EB0201001C41F5801300185B41D9
:100420002018A2F5001747EB030140EAD570B61972
:100430006D4111E06D084FEA360645EAC0754FEA96
:100440000752001B61EB0201001C41F580114908B5
:100450004FEA30000019514132462B4603B0BDE847
:10046000F04F00F04DB90098012240000023D0EB7E
:10047000020263EBE073009821464FEAE074B8EBA8
:10048000000061EB0401E9E783F000435BE781F0E2
:10049000004158E72DE9FE4F81EA030404F00044CF
:1004A00021F0004100944FF0000B23F0004350EA8C
:1004B00001045ED052EA03045BD0C3F30A54C1F3D3
:1004C0000A552C44A4F2F3340194A0FB0254C1F366
:1004D000130141F48011C3F3130343F4801301FBB0
:1004E000024400FB034E840A970A44EA815447EA17
:1004F0008357A4FB076802958D0A05FB07854FEA21
:10050000932C04FB0C542705029D4FEA065847EA3A
:100510001637B5EB08056EEB070C870E920E47EA0F
:10052000811742EA8312A7FB0201B6EB0B0164EBD1
:1005300000042B0D43EA0C335E1844EB1C50DA46E2
:100540005146E7FB0201C5F313044FEA0B3343EABC
:1005500014534FEA0432019C43EA0603A4F10C044D
:100560000294009CCDE900B400F0D9F803B0BDE8D6
:10057000F08F00200146F9E72DE9F04D81EA0304F0
:1005800004F0004B21F0004514464FF0000A23F020
:10059000004150EA050220D054EA01021DD0C5F303
:1005A0000A570246C5F31303C1F31300C1F30A56F9
:1005B00040F4801543F48013A7EB0608101BD646C1
:1005C00008F2FD3873EB050002D308F1010801E0E1
:1005D00092185B41B8F1000F03DA00200146BDE834
:1005E000F08D00204FF48011064684460EE0171B64
:1005F00073EB050705D3121B63EB050306434CEAB7
:10060000010C49084FEA300092185B4150EA01079B
:10061000EDD152EA030012D082EA040083EA050118
:10062000084305D0101BAB4106D20122002306E08F
:1006300000224FF0004302E06FF0010253101AEB6A
:1006400006004CEB085110EB0A0041EB0B01BDE832
:10065000F04D00F055B8C1F30A52C1F3130140F256
:10066000FF3341F480119A4202DA002001467047BC
:1006700040F233439A42A2F2334202DC5242FFF785
:1006800052BEFFF741BE000030B5041E71F10004F8
:1006900004DB4FF00044404264EB0101141E73F18F
:1006A000000405DB1C464FF00043524263EB040399
:1006B000994208BF904230BD064C074D06E0E06805
:1006C00040F0010394E8070098471034AC42F6D399
:1006D000FFF75EFD1450000834500008202A06DBA6
:1006E000CB17203A41FA02F043EAE07306E041FA00
:1006F00002F3D040C2F120029140084319467047EE
:1007000010B5141E73F1000408DA401C41F1000119
:1007100092185B411A4301D120F0010010BD2DE970
:10072000F04D92469B4611B1B1FA81F202E0B0FA67
:1007300080F220329046FFF7E7FD04460F4640EA7C
:100740000A0041EA0B0153465A46084313D01146AA
:1007500053EA010019D0C8F140025046FFF7E3FD0B
:1007600005460E46504659464246FFF7CDFD084322
:1007700005D0012004E020463946BDE8F08D002078
:10078000054346EAE0762C4337430A986305E40ABA
:10079000A0EB08000022FD0A44EA47540A3002D5C3
:1007A00000200146E9E7010510196941DDE9084526
:1007B00000196941BDE8F04DA2E7000070B506469A
:1007C0000C460025208808B902F0A8FE002517E095
:1007D00005EBC50101EB0511114B03EB0121B4F948
:1007E000003001EB8312C5EBC5010E4B03EB810119
:1007F00001F10C002023314603F09FFF681CC5B2B5
:10080000042DE5DB2088401C00B22080208864286D
:1008100003D100202080012070BD0020FCE70000F3
:10082000EC98002098FF002010B5074800F0ACFDC0
:1008300008B1012010BD0448543000F0A5FD08B1F6
:100840000120F7E70020F5E7F400002000BFFEE7F5
:1008500070B5ADF5CA5D04460D4600210DF580501A
:10086000C0F83C194FF4C8510FA8FFF712FD4FF420
:1008700048630FAA21460E4803F05FFF41F63C1281
:100880006A444FF448610FA804F0BAF940F6844175
:1008900007480C3802F054FE0DF58050B0F93C19B1
:1008A000A94203DD01200DF5CA5D70BD0020FAE705
:1008B0001400012070B50446A56A03202865284667
:1008C00000F022FB70BD70B50446A56A284600F012
:1008D0002BFC70BD70B50446A56A284600F0F6FCF6
:1008E00070BD00000146FF20174A914201D100204F
:1008F00028E0154A2032914201D1012022E0124A1B
:100900004032914201D102201CE00F4A60329142F4
:1009100001D1032016E00C4A8032914201D104201B
:1009200010E0094AA032914201D105200AE0064AAE
:10093000C032914201D1062004E0034AE0329142E4
:1009400000D10720704700000060014030B5A3B01F
:100950000A2425072B210491072105914FF40060FB
:1009600001904101089100201A9001200290062177
:10097000039101A801F09CF85D485E4908600120E0
:10098000087181075B4881601821C1600021016105
:1009900041618161C16104210162090541620A214D
:1009A00081620021C162046300F075F918B95148F1
:1009B00000F01EFA01E000F067F94E4800F070F90F
:1009C00008B100F061F94A48C0304B490860002086
:1009D000486001214848017241720021C1600174E0
:1009E00041744FF4007141614FF4C0418161C561B0
:1009F000402101620121416200F087FA18B93E48A6
:100A000000F02CFB01E000F03FF93B4800F082FAD7
:100A100008B100F039F901223849374800F048FAA6
:100A200008B100F031F93248A03032498863012121
:100A3000304880F83C108907016418214164002186
:100A40008164C16401654165042181650905C16551
:100A50000A210166002141668466383000F01BF9E6
:100A600020B92448383000F0C3F901E000F00CF957
:100A70002048383000F014F908B100F005F920489A
:100A80001D49486500211C488165012180F85C10E2
:100A900080F85D100021016680F8641080F8651010
:100AA0004FF4007181664FF4C041C1660567402173
:100AB000416701218167543000F027FA20B90E48C0
:100AC000543000F0CBFA01E000F0DEF80A48543070
:100AD00000F020FA08B100F0D7F8012209490648D1
:100AE000543000F0E5F908B100F0CEF823B030BD85
:100AF0004060014084000020F40000200400020057
:100B00000062014080000700416B31B9016809684B
:100B100041F400310268116025E00168096821F0A4
:100B20000101026811600168096841F4002102684E
:100B300011600168096841F001010268116090F8D4
:100B40004C1003290FD1816B29B90168096841F064
:100B500002010268116090F84010012901D1416C36
:100B600000E00121816490F84C10012901D102219B
:100B700000E0042180F84C1070470168096821F0FA
:100B8000010102681160416B012905D10168096802
:100B900021F40021026811600168096841F0010137
:100BA0000268116090F84C1004290FD1816B29B9AB
:100BB0000168096841F002010268116090F8401074
:100BC000012901D1416C00E00121816490F84C10B1
:100BD000022901D1012100E0032180F84C10704767
:100BE00010B520220849094800F072FB08B100F056
:100BF0004BF8202204490548543000F069FB08B145
:100C000000F042F810BD00002C660020F400002027
:100C100010B54FF448620949094800F059FB08B182
:100C200000F032F84FF4486206490548543000F0AD
:100C30004FFB08B100F028F810BD00002C02002086
:100C4000F40000202C34002010B5024800F0DCFB3A
:100C500010BD00009C010020704730B590F8445052
:100C60000124AC40056C6C60046863608468102CDF
:100C700004D10468A2600468E16003E00468A16034
:100C80000468E26030BD704704E002F045FDC82012
:100C900000F004FDF9E7014691F8340070470000C8
:100CA00010B504460CB9012010BD2068FFF71AFEEC
:100CB0004C4951F8200008B10120F5E7204600F02A
:100CC00097F849480068401C474908600846006892
:100CD000012827D14548006820F08040434908603A
:100CE00008460068A1680843404908600846006853
:100CF00020F47F000860207901280DD108460168A2
:100D0000E068401E4FF47F0292FAA2F2B2FA82F239
:100D100090400143354801603448006840F000408D
:100D2000324908602068006820F47140216808603A
:100D3000D4E904100843A1690843216809680843FD
:100D4000216808602068006820F00F0021680860B2
:100D5000D4E907100843216809680843216808603E
:100D60002068806820F45F0021688860D4E9091059
:100D7000401E4FF4F81292FAA2F2B2FA82F29040B8
:100D800008432168896808432168886020684068B2
:100D900000F00700216848606FF0FF0191FAA1F1AF
:100DA000B1FA81F1E06A8840F82292FAA2F2B2FA2E
:100DB00082F2216B91400843216849680843216809
:100DC00048602068006840F08000216808600120C9
:100DD00084F834002068FFF785FD024941F820407F
:100DE000002061E7B01A01201000002000600140DF
:100DF00010B586B0044600BF2A48006E40F08070EF
:100E0000284908660846006E00F08070009000BF18
:100E100000BF00BF0846C06C40F00400C86408462C
:100E2000C06C00F00400009000BF00BF00BF084687
:100E3000C06C40F00200C8640846C06C00F00200BC
:100E4000009000BF00BF042001900220029000200B
:100E50000390032004900620059001A9124800F099
:100E60002BFC4FF480400190022002900020039060
:100E7000032004900620059001A90C4800F01CFCFA
:100E80004FF4806001900220029000200390032024
:100E900004900620059001A9044800F00DFC06B05E
:100EA00010BD000000100240000800480004004887
:100EB00070B50346002093F84C4004B393F84C40BF
:100EC000FF2C1CD01C6824680E4D2C401D682C6023
:100ED000012A0AD11C6824680D0C2D04960446EAE8
:100EE00005252C431D682C6007E01C6824680D0C48
:100EF0002D0444EA05241D682C601A6300E00120DB
:100F000070BD0000FFFFFBF87047014691F84C00F0
:100F10007047000010B504460CB9012010BD4C49C3
:100F20002068884207D16068012802D0E068012863
:100F300001D10120F2E70020206301206064A06459
:100F400000202065204600F089F82068006820F421
:100F5000002021680860207A012806D120680068F6
:100F600040F000502168086005E02068006820F02B
:100F7000005021680860607A012806D12068006866
:100F800040F400102168086005E02068006820F443
:100F90000010216808602068006846F208718843E4
:100FA00021680860E068022805D12068016860694E
:100FB000014320680160207C012806D12068006878
:100FC00040F010002168086005E02068006820F00B
:100FD000100021680860607C012806D12068006844
:100FE00040F020002168086005E02068006820F0DB
:100FF000200021680860206840691649084021687F
:101000004861D4E90710401E134A92FAA2F2B2FADC
:1010100082F290400843616A491E08432168496989
:1010200008432168486160686063E068A063A06964
:10103000E063207C84F840002068006840F00100F4
:1010400021680860012084F84C00002066E7000059
:101050000061014000FF001C0000FF0338B5054699
:10106000002400BF2B48006E40F0807029490866BC
:101070000846006E00F08070009000BF00BF00BF07
:101080000846806C40F0010088640846806C00F0DF
:101090000100009000BF00BF1F492868884200D1AE
:1010A0001E4C1F492868884201D11C4C483400203E
:1010B00060600021A160E16080212161890061619F
:1010C0008900A1612021E161090221621249286899
:1010D000884201D11348206011492868884202D112
:1010E00010482830206000BFAC62A56200BF00201D
:1010F00084F82500204600F0FBF90749286888425B
:1011000007D1012211460E2000F05EFC0E2000F0F7
:101110004EFC38BD00100240006101409C010020DF
:1011200000620140440002402DE9F84F06460027C6
:101130005348864201D0BDE8F88F5248007801F04C
:1011400013FE50480078002848D14FF47A714E4879
:10115000FFF77EFB80464FF47A714C48FFF778FB2F
:101160008146B8F1000F02D1B9F1000F35D000204F
:101170000090002420E004EBC40000EB0410424B7C
:1011800003EB002204EBC40000EB041003EB00218E
:101190004FF448633E4803F0D0FA694601EB44023D
:1011A00004EBC40101EB0411374B03EB01204FF4B6
:1011B000486103F025FD641C022CDCDB3349324816
:1011C00003F03CFE824602F0CCF901202D49087064
:1011D000FFF72AFBFFF704FD00BF4EE02D492E4824
:1011E000FFF7ECFA00B3002516E005EB85012B4B69
:1011F00003EBC1012A4BB3F9003001EB430205EBCD
:10120000C50101EB0511274B03EB01204FF44861A9
:1012100003F0F6FC681C45B2042DE6DB204800888C
:10122000401C00B21E4908801D480088142824D1A3
:101230001A4801F0D9FE07460FB11BA000E01CA020
:1012400002461EA11F4802F0F1FD1E48FFF72CF8D0
:1012500084B24FF47A7322461A491B4801F020FDEC
:1012600000200F4908800B4908800649087002F0E9
:101270006FF9FFF7D9FAFFF7CBFC00BF5BE700007F
:10128000F400002000000020AC660020AC7F0020AD
:10129000DCFF002002000020AC980020ECFC0020C5
:1012A00004000020EC980020474C415353210000DB
:1012B0004E4F5420474C41535300000025730D0AF4
:1012C0000A0000008CFD0020140000207047000080
:1012D0002DE9F04104460E461546002706B10DB92A
:1012E000012747E02068006800F40010B0F5001FF7
:1012F00001D001273EE0606B40B9206B30B9A06A95
:10130000C06918B9012D01D0012733E0606B38B9ED
:10131000206B28B9A06AC069202801D1012729E0E3
:1013200094F84C00012803D094F84C00032820D1F5
:101330001248A16AC8621248A16A4863A06AC069DB
:10134000202801D10F4800E00020A16A086322682C
:1013500002F11C012B463246A06A00F051F920B17F
:10136000FF2084F84C00012704E02046FFF7CCFB67
:1013700000E001273846BDE8F0810000C7080008FA
:10138000B5080008D508000870B50446002594F893
:101390004C00022805D094F84C00042801D0012507
:1013A0000BE0A06A00F00BF820B1FF2084F84C009D
:1013B000012502E02046FFF7E0FB284670BD01460C
:1013C000002091F82520022A03D00422CA630120BC
:1013D00019E00A68126822F00E020B681A600A68A7
:1013E000126822F001020B681A6091F84430012261
:1013F0009A400B6C5A60012281F8252000BF002220
:1014000081F8242000BF704770B50446206C056841
:101410002068066894F84410042088402840D0B121
:1014200006F00400B8B12068006800F0200028B978
:101430002068006820F004002168086094F84410D7
:1014400004208840216C4860206B00284ED0204644
:10145000216B88474AE094F84410022088402840D5
:1014600008B306F00200F0B12068006800F0200028
:1014700040B92068006820F00A0021680860012057
:1014800084F8250094F8441002208840216C4860BC
:1014900000BF002084F8240000BFE06A30B320467B
:1014A000E16A884722E094F84410082088402840E8
:1014B000E0B106F00800C8B12068006820F00E0016
:1014C0002168086094F8441001208840216C48602D
:1014D0000120E06384F8250000BF002084F8240088
:1014E00000BF606B10B12046616B884770BD000083
:1014F00010B50146002209B9012010BD8868B0F579
:10150000804F00D000BF3C4B086898420BD23B4B49
:101510000868C01A1423B0FBF3F080004864374811
:10152000083808640AE0344B0868C01A1423B0FB7A
:10153000F3F080004864304808380864022081F8DD
:1015400025000868026843F6F0708243D1E902037F
:1015500018430B6918434B6918438B691843CB69CF
:1015600018430B6A18430243086802608868B0F5A4
:10157000804F32D0214B083B086C984217D1D0F8ED
:10158000A80091F844400F23A34098431B4BA0337D
:10159000186091F8443048689840184B083BD3F8DD
:1015A000A8301843154B083BC3F8A80015E01248B3
:1015B000A030006891F844400F23A34098430E4B9D
:1015C000A033186091F84430486898400A4BA03323
:1015D0001B681843084BA03318600020C8620863DA
:1015E00048638863C863012081F82500002081F8E2
:1015F000240000BF81E70000080402400800024008
:101600002DE9F04104460D4616461F464FF00008EE
:1016100000BF94F82400012802D10220BDE8F08127
:10162000012084F8240000BF94F8250001282CD163
:10163000022084F825000020E0632068006820F084
:101640000100216808603B46324629462046FFF7E4
:1016500004FB206B30B12068006840F00E00216868
:1016600008600BE02068006820F004002168086032
:101670002068006840F00A0021680860206800685F
:1016800040F001002168086006E000BF002084F8F7
:10169000240000BF4FF002084046BFE770B5044683
:1016A000002500F017F9054600BF00F013F9401BB4
:1016B000A042FAD370BD000078B503460022002492
:1016C0000020E5E0012696400D6805EA0604002C9E
:1016D0007DD04D68022D02D04D68122D13D1D60851
:1016E00003F1200555F826005507EE0E0F25B540ED
:1016F000A8435607F60E0D69B5402843D60803F1F6
:10170000200545F82600186856000325B540A84373
:101710000D7905F003055600B540284318604D6863
:10172000012D08D04D68022D05D04D68112D02D035
:101730004D68122D13D1986856000325B540A84373
:101740005600CD68B54028439860586801259540FB
:10175000A8430D79C5F300159540284358600D79CD
:1017600005F00305032D09D1D86A01259540A8434A
:101770000D79C5F3C00595402843D862D868560056
:101780000325B540A84356008D68B5402843D8606E
:101790004D6805F08055B5F1805F78D100BF3F4DB1
:1017A0002D6E45F001053D4E356635462D6E05F032
:1017B0000105009500BF00BF4FEAB635960855F801
:1017C000260095072E0F0F25B540A84300E05EE0E8
:1017D000B3F1904F01D100251EE0314DAB4201D154
:1017E000012519E02F4DAB4201D1022514E02E4D09
:1017F000AB4201D103250FE02C4DAB4201D10425B2
:101800000AE02B4DAB4201D1052505E0294DAB4245
:1018100001D1062500E007259607360FB54028437D
:10182000254D960845F82600244D2868A0434D68AC
:1018300005F48035B5F5803F00D120431F4D286069
:101840002D1D2868A0434D6805F40035B5F5003F0F
:1018500000D12043194D2D1D28602D1D2868A0435F
:101860004D6805F48015B5F5801F00D12043134D58
:10187000083528602D1D2868A0434D6805F4001523
:10188000B5F5001F00D120430C4D0C352860521CCB
:101890000D68D540002D7FF415AF78BD00100240D3
:1018A0000004004800080048000C004800100048F0
:1018B00000140048001800480800014000040140DE
:1018C00042694A40426170470AB1816100E0816229
:1018D0007047000001480068704700000C000020BD
:1018E00002480068401C0149086070470C00002055
:1018F00010B50848006840F480700649086003206D
:1019000000F0A0F80F2000F007F800F04FF80020DA
:1019100010BD000000200240F0B587B0054600264B
:10192000002700222946362000F04EF8362000F02D
:101930003EF800BF1948806D40F0100017498865D7
:101940000846806D00F01000009000BF00BF01A9A4
:1019500002A800F00BFC059E1EB900F02FFC044607
:1019600002E000F02BFC44000D48B4FBF0F0471EF1
:101970000C480D49086040F2E7310B48C1604760F0
:1019800000210161816001F02BF820B9064801F0C7
:1019900042F807B0F0BD0120FBE700000010024054
:1019A00040420F0000100040D01A0120704700BFD5
:1019B00000F01F02012191404209920002F1E02251
:1019C000C2F8001100BF70472DE9F05F80460D4658
:1019D0001646002701F0EAFA074639462A463346FA
:1019E00001F00700C0F1070ABAF1040F02D94FF065
:1019F000040A01E0C0F1070AD14600F1040ABAF175
:101A0000070F02D24FF0000A01E0A0F1030AD4460A
:101A10004FF0010A0AFA09FAAAF1010A0AEA020ACF
:101A20000AFA0CFA4FF0010B0BFA0CFBABF1010BAD
:101A30000BEA030B4AEA0B042146404601F0BEFACA
:101A4000BDE8F09F00BF00F00702064B19684FF693
:101A5000FF031940044B0B4343EA0221014B196079
:101A600000BF70470CED00E00000FA050248006876
:101A700000F4C06070470000007000400648006835
:101A800020F0200004499039C1F890000846806990
:101A900020F400708861704790100240034800688D
:101AA00040F0040001490860704700000010024047
:101AB0002DE9F8430446002600270025A846208883
:101AC00000F40060B0F5006F30D1606E80B1B0F509
:101AD000800F13D0B0F5000F03D0B0F5400F15D133
:101AE00013E0FA48C06840F48030F849C8600FE05D
:101AF0000021201D01F0F6FA054609E0002104F15D
:101B0000200001F0E5FB054602E001E0012500BFF1
:101B100000BF55B9ED488830006820F44000616E80
:101B20000843EA49C1F8880000E0A846208800F48C
:101B30008050B0F5805F30D1A06E80B1B0F1807F71
:101B400013D0B0F1007F03D0B0F1407F15D113E086
:101B5000DE48C06840F48030DC49C8600FE00021F6
:101B6000201D01F0BFFA054609E0002104F1200024
:101B700001F0AEFB054602E001E0012500BF00BF19
:101B800055B9D2488830006820F04070A16E0843F3
:101B9000CE49C1F8880000E0A846206800F4003073
:101BA000B0F5003F76D14FF00009C848806D00F0D5
:101BB000805078B900BFC548806D40F08050C3495F
:101BC00088650846806D00F08050009000BF00BF1F
:101BD0004FF00109BE48006840F48070BC490860BD
:101BE000FFF778FE074606E0FFF774FEC01B0228E9
:101BF00001D9032505E0B648006800F4807000288C
:101C0000F2D000BF85BBB1489030006800F4407648
:101C1000D6B1D4F88400B04216D0AC4890300068F9
:101C200020F44076A948D0F8900040F48030A749CD
:101C3000C1F890000846D0F8900020F48030C1F838
:101C400090000846C0F8906006F00100A8B1FFF7C8
:101C500041FE074609E0FFF73DFEC01B41F2883117
:101C6000884202D9032507E017E0984890300068C1
:101C700000F002000028EED000BF65B99348903014
:101C8000006820F44070D4F8841008438F49C1F8EC
:101C9000900003E00CE0A84600E0A846B9F1010F6F
:101CA00005D18A48806D20F080508849886500BF42
:101CB000207800F0010048B184488830006820F0A6
:101CC0000300A16B08438149C1F88800207800F027
:101CD0000200022809D17D488830006820F00C00FD
:101CE000E16B08437949C1F88800207800F00400CE
:101CF000042809D175488830006820F03000216C34
:101D000008437249C1F88800207800F008000828CC
:101D100009D16E488830006820F0C000616C08432B
:101D20006A49C1F88800207800F01000102809D115
:101D300066488830006820F44070A16C084363490D
:101D4000C1F88800207800F02000202809D15F48E1
:101D50008830006820F44060E16C08435B49C1F8BA
:101D60008800208800F40070B0F5007F09D1574842
:101D70008830006820F44020E16D08435349C1F8E1
:101D80008800208800F48060B0F5806F09D14F484A
:101D90008830006820F44010216E08434B49C1F898
:101DA0008800207800F04000402809D1474888305A
:101DB000006820F44050216D08434449C1F8880070
:101DC000207800F08000802809D1404888300068E1
:101DD00020F44040616D08433C49C1F888002088E8
:101DE00000F48070B0F5807F09D1384888300068F1
:101DF00020F44030A16D08433449C1F888002088A0
:101E000000F40050B0F5005F1FD130488830006802
:101E100020F04060E16E08432C4988310860E06E94
:101E2000B0F1006F06D12948C06840F480102749FE
:101E3000C8600AE0E06EB0F1806F06D10121201D7C
:101E400001F050F9054605B1A846206800F40020CD
:101E5000B0F5002F1FD11D488830006820F0406089
:101E6000216F0843194988310860206FB0F1006F75
:101E700006D11648C06840F480101449C8600AE0D2
:101E8000206FB0F1806F06D10121201D01F02AF9E9
:101E9000054605B1A846206800F48020B0F5802FE3
:101EA00023D10A488830006820F04060616F084301
:101EB000064988310860606FB0F1006F0AD10348AD
:101EC000C06840F480100149C8600EE00010024074
:101ED00000700040606FB0F1806F06D10121201DBD
:101EE00001F000F9054605B1A846208800F48040BD
:101EF000B0F5804F1FD12248006820F04050A16FFC
:101F000008431F490860A06FB0F1805F07D102212C
:101F1000201D01F0E7F805466DB1A8460BE0A06F63
:101F2000B0F1005F07D1022104F1200001F0D0F9E7
:101F3000054605B1A846208800F40040B0F5004FE2
:101F400009D10F48006820F08040E16F08430C4938
:101F50008839C1F88800206800F48030B0F5803FEF
:101F60000AD10748006820F00040D4F880100843E8
:101F700003498839C1F888004046BDE8F88300006D
:101F80008810024070B504460D460026734800686C
:101F900000F00700A8420ED27048006820F0070049
:101FA00028436E4908600846006800F00700A84210
:101FB00001D0012070BD207800F00200022807D176
:101FC0006748806820F0F000A16808436449886091
:101FD000207800F00100002879D06068022806D13E
:101FE0005F48006800F40030D8B90120E2E760687B
:101FF000032806D15A48006800F0007088B9012013
:10200000D8E7606830B95648006800F0020040B96F
:102010000120CFE75248006800F4806008B9012031
:10202000C8E74F48806820F00300616808434C49C6
:102030008860FFF74FFC06466068022810D108E070
:10204000FFF748FC801B41F28831884201D9032008
:10205000B0E74348806800F00C000828F0D136E073
:102060006068032810D108E0FFF734FC801B41F2C0
:102070008831884201D903209CE73948806800F004
:102080000C000C28F0D122E0606880B908E0FFF76E
:1020900021FC801B41F28831884201D9032089E765
:1020A0002F48806800F00C000028F0D10FE008E015
:1020B000FFF710FC801B41F28831884201D90320D0
:1020C00078E72748806800F00C000428F0D1234806
:1020D000006800F00700A8420ED92048006820F0F0
:1020E000070028431D4908600846006800F0070003
:1020F000A84201D001205DE7207800F00400042808
:1021000007D11748806820F4E060E168084314496B
:102110008860207800F00800082808D110488068FE
:1021200020F46050216940EAC1000D49886000F048
:1021300071F80B49896801F0F001F02292FAA2F2DD
:10214000B2FA82F2D140074A515CC84006490860A1
:102150000F20FFF7E1FB00202CE7000000200240E9
:1021600000100240CC4F0008080000200F2202603F
:102170000D4A926802F0030242600B4A926802F034
:10218000F0028260084A926802F4E062C260064A85
:10219000926802F46052D2080261044A126802F0A6
:1021A00007020A6070470000001002400020024051
:1021B00001480068704700000800002000B5FFF7E4
:1021C000F7FF0749896801F4E0614FF4E06292FA91
:1021D000A2F2B2FA82F2D140024A515CC84000BD7C
:1021E00000100240DC4F000800B5FFF7E1FF07498F
:1021F000896801F460514FF4605292FAA2F2B2FA87
:1022000082F2D140024A515CC84000BD0010024039
:10221000DC4F0008F0B50021002300240225022233
:102220000020554EB66806F00C065EB1524EB668F8
:1022300006F00C060C2E2DD14F4EF66806F0030664
:10224000012E27D14C4E366806F008066EB94A4E6C
:102250009436366806F470664FF4706797FAA7F7FD
:10226000B7FA87F726FA07F10AE0434E366806F018
:10227000F006F02797FAA7F7B7FA87F726FA07F1DB
:102280003E4E56F821103C4EB66806F00C0686B954
:1022900008460EE0384EB66806F00C06042E01D152
:1022A000374806E0344EB66806F00C06082E00D11A
:1022B0003448314EB66806F00C060C2E5BD12E4E1B
:1022C000F66806F003042C4EF66806F070067027D8
:1022D00097FAA7F7B7FA87F7FE40721C012C29D0AE
:1022E000022C02D0032C24D111E0254EB6FBF2F6CD
:1022F000214FFF6807F4FE474FF4FE4C9CFAACFCFC
:10230000BCFA8CFC27FA0CF706FB07F323E01D4E02
:10231000B6FBF2F6184FFF6807F4FE474FF4FE4C89
:102320009CFAACFCBCFA8CFC27FA0CF706FB07F312
:1023300011E000BFB1FBF2F60F4FFF6807F4FE4754
:102340004FF4FE4C9CFAACFCBCFA8CFC27FA0CF760
:1023500006FB07F300BF00BF074EF66806F0C06635
:102360004FF0C06797FAA7F7B7FA87F7FE40761CD9
:102370007500B3FBF5F0F0BD00100240E44F00081B
:102380000024F40000127A00F8B5044600252078F5
:1023900000F01000102874D1FE48806800F00C0096
:1023A000002870D1FB48006800F0020018B1A06955
:1023B00008B90120F8BDF748216A006800F008005C
:1023C00020B1F448006800F0F00005E0F1489430D6
:1023D000006800F47060000981421FD9206A01F092
:1023E0004DF808B10120E5E700BFEA48006840F079
:1023F0000800E84908600846006820F0F000216AFB
:102400000843E449086000BF0846406820F47F4064
:10241000E16940EA0120DF4948601EE000BFDD4875
:10242000006840F00800DB4908600846006820F0BA
:10243000F000216A0843D749086000BF0846406899
:1024400020F47F40E16940EA0120D2494860206AD7
:1024500001F014F808B10120ACE7FFF7DBFECD492D
:10246000896801F0F001F02292FAA2F2B2FA82F247
:10247000D140C94A515CC840C84908600F20FFF7E5
:102480004BFA4BE0FFE7A06980B3C248006840F018
:102490000100C0490860FFF71DFA054606E0FFF796
:1024A00019FA401B022801D9032083E7B9480068C4
:1024B00000F002000028F2D000BFB648006840F0EB
:1024C0000800B44908600846006820F0F000216A5E
:1024D0000843B049086000BF0846406820F47F40C8
:1024E000E16940EA0120AB49486017E0FFE7A948ED
:1024F000006820F00100A7490860FFF7EBF90546E6
:1025000006E0FFF7E7F9401B022801D9032051E755
:10251000A048006800F002000028F2D1207800F006
:10252000010000286CD09B48806800F00C0008284F
:102530000BD09848806800F00C000C280ED195480C
:10254000C06800F00300032808D19248006800F436
:10255000003088B3606878BB01202BE700BF60685B
:10256000B0F5803F06D18B48006840F4803089493F
:1025700008601AE06068B0F5A02F0BD185480068AC
:1025800040F48020834908600846006840F48030A9
:1025900008600AE07F48006820F480307D490860C8
:1025A0000846006820F48020086000BF6068A0B181
:1025B000FFF790F9054609E022E0FFF78BF9401B91
:1025C00041F28831884201D90320F3E6714800685E
:1025D00000F400300028F0D012E0FFF77BF9054648
:1025E00008E0FFF777F9401B41F28831884201D9B2
:1025F0000320DFE66748006800F400300028F0D1CF
:10260000207800F0020002286AD16248806800F059
:102610000C0004280BD05F48806800F00C000C28E8
:102620001ED15C48C06800F00300022818D1594848
:10263000006800F4806018B1E06808B90120B9E6CC
:102640005448406820F0F8504FF0F85292FAA2F245
:10265000B2FA82F22169914008434E4948603FE056
:10266000E06830B34B48006840F480704949086026
:10267000FFF730F9054606E0FFF72CF9401B02286A
:1026800001D9032096E64348006800F480600028E2
:10269000F2D04048406820F0F8504FF0F85292FADB
:1026A000A2F2B2FA82F221699140084339494860A6
:1026B00016E03848006820F4807036490860FFF75B
:1026C00009F9054606E0FFF705F9401B022801D984
:1026D00003206FE62F48006800F480600028F2D1E4
:1026E000207800F00800082836D16069D0B1294868
:1026F0009430006840F001002649C1F89400FFF7CB
:10270000E9F8054606E0FFF7E5F8401B022801D985
:1027100003204FE61F489430006800F002000028B4
:10272000F1D019E01B489430006820F001001949ED
:10273000C1F89400FFF7CEF8054606E0FFF7CAF8A7
:10274000401B022801D9032034E612489430006867
:1027500000F002000028F1D1207800F004000428E5
:1027600070D100260B48806D00F0805070B900BF1A
:102770000848806D40F08050064988650846806DA5
:1027800000F08050009000BF00BF012604480068A0
:1027900008E0000000100240CC4F000808000020B4
:1027A0000070004000F48070B0B98948006840F4BF
:1027B000807087490860FFF78DF8054606E0FFF74F
:1027C00089F8401B022801D90320F3E580480068FE
:1027D00000F480700028F2D000BFA068012808D162
:1027E0007C48006840F001007A499039C1F89000B7
:1027F00021E0A06805280FD17648006840F0040069
:1028000074499039C1F890000846D0F8900040F023
:102810000100C1F890000EE06E48006820F0010051
:102820006C499039C1F890000846D0F8900020F02B
:102830000400C1F8900000BFA068A0B1FFF74AF8FB
:10284000054609E02DE0FFF745F8401B41F28831CD
:10285000884201D90320ADE55E48006800F002001F
:102860000028F0D012E0FFF735F8054608E0FFF742
:1028700031F8401B41F28831884201D9032099E5A3
:102880005448006800F002000028F0D1012E07D162
:1028900050489038806D20F080504E4990398865BE
:1028A00000BFA06AF0B34B489038806800F00C007D
:1028B0000C2879D0A06A022853D146489038006885
:1028C00020F08070434990390860FFF703F805460F
:1028D00006E0FEF7FFFF401B022801D9032069E54F
:1028E0003C489038006800F000700028F1D1206B5F
:1028F000401E0101606B41EA0021A06B000941EA22
:102900004040E16A0843A18F0122C2EB510140EA35
:1029100041514020005DC2EB500041EA40602D492A
:10292000903900E052E0C8600846006840F08070CE
:1029300008600846C06840F08070C860FEF7CAFFB3
:10294000054606E0FEF7C6FF401B022801D903201A
:1029500030E520489038006800F000700028F1D081
:1029600034E01C489038006820F080701949903994
:1029700008600846006800F0006048B90846006832
:1029800000F0005020B90846C06820F00300C8607D
:1029900010489038C068104908400E499039C86006
:1029A000FEF798FF054607E00EE0FEF793FF401B99
:1029B000022801D90320FDE406489038006800F0A1
:1029C00000700028F1D101E00120F3E40020F1E4DF
:1029D0000070004090100240FFFFEEFE704770470D
:1029E00010B504460CB9012010BD94F8390028B97F
:1029F000002084F83800204600F00CF8022084F80B
:102A00003900211D206800F027FE012084F83900DC
:102A10000020E9E7704701460868C06840F00100FF
:102A20000A68D0600868006840F001000A68106019
:102A300000207047704710B5044620680069C0F355
:102A40004000D8B12068C068C0F34000B0B16FF05A
:102A5000020021680861012020762068806900F06A
:102A6000030018B12046FFF7E5FF05E0204600F01F
:102A7000ADF8204600F0ABF8002020762068006911
:102A8000C0F38000D8B12068C068C0F38000B0B146
:102A90006FF00400216808610220207620688069B8
:102AA00000F4407018B12046FFF7C4FF05E020464F
:102AB00000F08CF8204600F08AF80020207620688C
:102AC0000069C0F3C000D8B12068C068C0F3C0007E
:102AD000B0B16FF0080021680861042020762068FA
:102AE000C06900F0030018B12046FFF7A3FF05E01E
:102AF000204600F06BF8204600F069F800202076B0
:102B000020680069C0F30010D8B12068C068C0F325
:102B10000010B0B16FF01000216808610820207625
:102B20002068C06900F4407018B12046FFF782FFAA
:102B300005E0204600F04AF8204600F048F8002062
:102B400020762068006900F0010058B12068C06854
:102B500000F0010030B16FF00100216808612046EB
:102B600000F036F820680069C0F3C01058B1206842
:102B7000C068C0F3C01030B16FF0800021680861F8
:102B80002046FFF72BFF20680069C0F3801058B182
:102B90002068C068C0F3801030B16FF04000216839
:102BA0000861204600F019F820680069C0F3401061
:102BB00058B12068C068C0F3401030B16FF02000F9
:102BC000216808612046FFF70AFF10BD7047704773
:102BD00010B50446FEF784FE10BD704710B50446DC
:102BE0000CB9012010BD242084F869002068006819
:102BF00020F0010021680860002021680860216839
:102C0000486021688860204600F048F80020E066AF
:102C100084F8690084F86A0000BF84F8680000BF87
:102C200000BFDFE710B504460CB9012010BDA06954
:102C300000B100E000BF94F8690028B9002084F8D2
:102C40006800204600F02BF8242084F869002068F2
:102C5000006820F0010021680860204600F06AFE4C
:102C6000012800D1E2E7606A10B1204600F05BFD68
:102C70002068406820F4904021684860206880689F
:102C800020F02A00216888602068006840F0010078
:102C900021680860204600F0C2FDC7E77047704712
:102CA0002DE9F84304460D4616461F464FF000092D
:102CB00094F86900202854D105B116B90120BDE867
:102CC000F88300BF94F86800012801D10220F6E7DC
:102CD000012084F8680000BF00205034E06121200A
:102CE0006076FEF7F7FD814626806680503C21E045
:102CF000B4F85200401EA4F852004B460022802136
:102D00002046009701F05AF808B10320D7E7A068E1
:102D1000B0F5805F0AD1206940B9A846B8F8000034
:102D2000C0F3080021680885AD1C03E015F8010B0D
:102D300021680885B4F852000028D9DC4B460022EF
:102D400040212046009701F039F808B10320B6E78A
:102D5000202084F8690000BF002084F8680000BFCC
:102D6000ADE70220ABE7000070B502460123B2B325
:102D7000002031E03F4C54F8204024125C43E41121
:102D80003D4D2C606D683C4E366835443A4EB66811
:102D9000AD1BC5EB8515AC00E51704EB15652D12D1
:102DA000354E7560344624683546AC602C46646800
:102DB000324DAC4201DA2C4609E02F4C646847F6EC
:102DC000F875AC4201DD2C4601E02B4C646824B25E
:102DD0002B4D25F81040401C2028CBDB48E0FFE7B6
:102DE000002143E000203DE001EBC10404EB0114AD
:102DF000244D05EB442454F8204024125C43E41194
:102E0000214D2C606D68204E366835441E4EB668E4
:102E1000AD1BC5EB8515AC00E51704EB15652D1250
:102E2000194E7560344624683546AC602C4664689B
:102E3000124DAC4201DA2C4609E0134C646847F6A7
:102E4000F875AC4201DD2C4601E00F4C646824B2F9
:102E500001EBC10505EB01150C4E06EB052525F828
:102E60001040401CB0F5486FBEDB491C0229B9DB9D
:102E700070BD00002C66002080FF00200880FFFF4E
:102E8000AC9800202C0200208CFF0020AC660020B3
:102E900000BFFEE708B52020154B164A16490090E2
:102EA000164800F043F82020154B164A16490090AA
:102EB00012481C3000F03AF82020144B144A1549EF
:102EC00000900E48383000F031F82020124B134AA1
:102ED000134900900948543000F028F84FF4486036
:102EE000104B0B4A0B4900900F4800F01FF808BD2B
:102EF00024000120A24E00089A4E000898FF0020EE
:102F00006C000120B44E0008AC4E0008B400012053
:102F1000C64E0008BE4E0008FC000120D84E000836
:102F2000D04E000844010120080001202DE9FC4199
:102F300004460D4616461F46DDF820802560666073
:102F4000A760A068CDE90008042104F10C00D4E9D1
:102F5000002301F0DDFBBDE8FC81000000B587B077
:102F600000BF0F48C06C40F001000D49C86408461E
:102F7000C06C00F00100019000BF00BF2020029053
:102F800001200390002004900220059002A94FF038
:102F90009040FEF791FB00F0DBFA07B000BD0000A7
:102FA0000010024000BFFEE77047000002480068C2
:102FB000C0F30220704700000CED00E010B50028BF
:102FC00007DA0A07140E054A00F00F031B1FD4543A
:102FD00003E00A07130E024A135410BD18ED00E077
:102FE00000E400E070470000F0B52DED048BD1B097
:102FF00006469FED330AB0EE408A00240DE004EB54
:10300000840201AB03EB021104EB840206EBC20065
:10301000132201F0A7FD601C44B2042CEFDB294809
:1030200090ED000AF7EE000A20EE200AB0EE408A8A
:1030300000241FE0002519E004EB840001A901EB46
:10304000001000EB8500D0ED000A012000EB8400A9
:1030500028441C4901EB800090ED001AB0EE480AAC
:1030600000EE810AB0EE408A681C45B2132DE3DB06
:10307000601C44B2042CDDDB18EE100AFDF71BF9CE
:1030800041EC190B53EC192B0FA1144800F0CEFEA4
:103090001248FDF709F987B24FF47A733A460F499F
:1030A0000F48FFF7FDFDB5EEC08AF1EE10FA04DB24
:1030B000012051B0BDEC048BF0BD0020F9E7000009
:1030C00000000000E44E000858202A20746865744F
:1030D00061203D2025662C20000000004C1A0120B4
:1030E000140000202DE9F04104460E46002700257B
:1030F0007348C06800F00300C0B17148C06800F0B8
:103100000300216888420FD1206868B16C48C0680C
:1031100000F07000702191FAA1F1B1FA81F1C8407C
:10312000401C6168884238D0012536E020680128BB
:1031300004D0022809D003281AD10DE060480068A5
:1031400000F0020000B9012514E05D48006800F4B9
:10315000806000B901250DE05948006800F4003096
:1031600028B95748006800F4802000B9012501E023
:10317000012500BF00BF85B9D4E90010401E7022B0
:1031800092FAA2F2B2FA82F2904008434C49C9681E
:1031900021F0730108434A49C860002D77D148489F
:1031A000006820F0806046490860FEF793FB074600
:1031B00006E0FEF78FFBC01B022801D9032505E0BE
:1031C0003F48006800F000600028F2D100BF002DE9
:1031D00073D1CEB94FF4FE4191FAA1F1B1FA81F168
:1031E000A0688840E16809094FF4003292FAA2F21F
:1031F000B2FA82F29140084331490969314A1140DB
:1032000008432F49086138E0012E1BD14FF4FE41DD
:1032100091FAA1F1B1FA81F1A068884001222169F7
:10322000C2EB51014FF4C00292FAA2F2B2FA82F25A
:103230009140084322490969234A11400843204923
:1032400008611AE04FF4FE4191FAA1F1B1FA81F15F
:10325000A068884001226169C2EB51014FF0C06251
:1032600092FAA2F2B2FA82F2914008431449096933
:10327000164A11400843124908611148006840F09D
:1032800080600F490860FEF725FB074607E014E061
:10329000FEF720FBC01B022801D9032505E00848E2
:1032A000006800F000600028F2D000BF2DB904488B
:1032B0000069A1690843024908612846BDE8F08118
:1032C00000100240FF80FDFFFF809FFFFF80FFF99D
:1032D0002DE9F04104460E46002700256448C068E9
:1032E00000F00300C0B16248C06800F0030021682C
:1032F00088420FD1206868B15D48C06800F0700056
:10330000702191FAA1F1B1FA81F1C840401C6168C5
:10331000884238D0012536E02068012804D00228F0
:1033200009D003281AD10DE05148006800F00200CE
:1033300000B9012514E04E48006800F4806000B92F
:1033400001250DE04A48006800F4003028B94848DB
:10335000006800F4802000B9012501E0012500BFCC
:1033600000BF85B9D4E90010401E702292FAA2F283
:10337000B2FA82F2904008433D49C96821F07301D6
:1033800008433B49C860002D6FD13948006820F0E0
:10339000805037490860FEF79DFA074606E0FEF7C1
:1033A00099FAC01B022801D9032505E030480068BE
:1033B00000F000500028F2D100BFE5BBCEB94FF4B9
:1033C000FE4191FAA1F1B1FA81F1A0688840E1686B
:1033D00009094FF4003292FAA2F2B2FA82F2914055
:1033E000084323494969234A114008432049486159
:1033F0001AE04FF4FE4191FAA1F1B1FA81F1A0680F
:10340000884001222169C2EB51014FF0C06292FA5B
:10341000A2F2B2FA82F29140084315494969164A6C
:1034200011400843124948611148006840F080503B
:103430000F49086000E018E0FEF74CFA074606E086
:10344000FEF748FAC01B022801D9032505E0084809
:10345000006800F000500028F2D000BF2DB90448E9
:10346000406961690843024948612846BDE8F08126
:1034700000100240FF80FDFFFF80FFF9F8B5044611
:10348000002600252348806D00F0805018B1FEF71B
:10349000EDFA064616E000BF1E48806D40F08050F1
:1034A0001C4988650846806D00F08050009000BF80
:1034B00000BFFEF7DBFA06461648806D20F080500C
:1034C00014498865B6F5007F07D1802C10D9A02C4F
:1034D00001D902250CE001250AE0802C01D9032541
:1034E00006E0802C01D1022502E0702C00D10125DC
:1034F0000948006820F0070028430749086008468B
:10350000006800F00700A84201D00120F8BD0020AB
:10351000FCE70000001002400020024010B500242B
:1035200008E0C4EBC401054A02EB8100242100F04D
:1035300007F8641C042CF4DB10BD000098FF002089
:1035400070B504460D466900A068FCF7A2FE70BD88
:1035500010B5002220214FF09040FEF7B5F910BDC4
:10356000704710B5012220214FF09040FEF7ACF9D2
:1035700010BD10B5FEF7B4F910BD00B5B9B0042008
:1035800023900120259023A8FEF7FEFEFEF776FA91
:10359000102023900120299000202A90B0202B9009
:1035A00002202D90012123A8C16206210163282158
:1035B0004163072181630421C1630164FEF7E4FED6
:1035C000FEF76CFA4FF4005001904FF040601C90F1
:1035D00001A8FEF76DFA0F203490032035900020EB
:1035E000369037904FF480603890042134A8FEF76D
:1035F000C9FC39B000BD00001048006840F47000FC
:103600000E4908600E48006840F001000C4908604F
:1036100000208860084600680A4908400849086098
:103620008814C8600846006820F4802008600020E4
:103630008861C803014980390860704788ED00E05F
:1036400000100240FFFFF6EA10B50248FFF7F3F959
:1036500010BD0000D01A012000220268264B9842BB
:103660000ED0B0F1804F0BD0244B984208D0244BA1
:10367000984205D0234B984202D0234B984203D165
:1036800022F070024B681A431B4B984217D0B0F1DE
:10369000804F14D0194B984211D0194B98420ED03C
:1036A000184B98420BD0184B984208D0174B9842B1
:1036B00005D0174B984202D0164B984203D122F402
:1036C0004072CB681A4302608B68C3620B688362E6
:1036D000094B98420BD00C4B984208D00B4B9842A8
:1036E00005D00B4B984202D00A4B984201D10B698E
:1036F0000363012343617047002C01400004004034
:1037000000080040000C004000340140004001402F
:10371000004401400048014010B520214FF0904086
:10372000FEF7CEF810BD90F8241001F0010139B178
:103730000168496821F40031826A114302685160CE
:1037400090F8241001F00201022907D101684968AC
:1037500021F48031C26A11430268516090F824104C
:1037600001F00401042907D10168496821F480218E
:10377000026B11430268516090F8241001F00801B7
:10378000082907D10168496821F40041426B1143BF
:103790000268516090F8241001F01001102907D13F
:1037A0000168896821F48051826B1143026891603D
:1037B00090F8241001F02001202907D101688968C0
:1037C00021F40051C26B11430268916090F82410FB
:1037D00001F04001402913D10168496821F48011AA
:1037E000026C114302685160016CB1F5801F07D172
:1037F0000168496821F4C001426C114302685160BC
:1038000090F8241001F08001802907D101684968EF
:1038100021F40021826C114302685160704738B571
:10382000044600250020E066FEF754F805462068AF
:10383000006800F0080008280CD16FF07E402B468D
:1038400000224FF400110090204600F0B7FA08B1B2
:10385000032038BD2068006800F0040004280CD163
:103860006FF07E402B4600224FF4800100902046EE
:1038700000F0A4FA08B10320EBE7202084F86900E7
:1038800084F86A0000BF002084F8680000BF00BF11
:10389000DFE7000010B586B0044600BF2348C06CC7
:1038A00040F001002149C8640846C06C00F00100E6
:1038B000009000BF00BF00BF0846806D40F400309C
:1038C00088650846806D00F40030009000BF00BF9E
:1038D0000420019002200290012003900320049014
:1038E0000720059001A94FF09040FDF7E5FE104834
:1038F00020604FF4E13060600021A160E16021614F
:103900000C2161610021A161E161216200206062FE
:103910002046FFF763F908B1FDF7B6F92046FFF737
:1039200081F908B1FDF7B0F906B010BD00100240F2
:10393000004400402DE9F05F044600251026A9460A
:10394000AA46AB46FC492068884201D1012000E02C
:10395000002000B100E000BF2169A0680843616950
:103960000843E16940EA010520680068F34908401E
:103970002843216808602068406820F44050E168CE
:10398000084321684860A569EB492068884201D155
:10399000012000E0002008B9206A05432068806803
:1039A00020F4306028432168886000BFE449206823
:1039B000884216D1E348006800F0030030B10128C6
:1039C00008D0022804D0032808D105E0012607E02A
:1039D000022605E0042603E0082601E0102600BFC9
:1039E0008CE0D9492068884216D1D648006800F09A
:1039F0000C0030B1042808D0082804D00C2808D1C5
:103A000005E0002607E0022605E0042603E008267C
:103A100001E0102600BF71E0CC492068884216D131
:103A2000C848006800F0300030B1102808D02028C5
:103A300004D0302808D105E0002607E0022605E082
:103A4000042603E0082601E0102600BF56E0C04926
:103A50002068884216D1BB48006800F0C00030B131
:103A6000402808D0802804D0C02808D105E00026CE
:103A700007E0022605E0042603E0082601E0102600
:103A800000BF3BE0B3492068884219D1AD480068C7
:103A900000F4407048B1B0F5807F0AD0B0F5007FE7
:103AA00005D0B0F5407F08D105E0002607E00226EA
:103AB00005E0042603E0082601E0102600BF1DE013
:103AC0009D492068884219D19E48006800F44060F2
:103AD00048B1B0F5806F0AD0B0F5006F05D0B0F5F1
:103AE000406F08D105E0002607E0022605E0042625
:103AF00003E0082601E0102600BF00BF00BF8E498A
:103B00002068884201D1012000E00020002871D007
:103B10000025042E0FD003DC3EB1022E12D108E0A6
:103B2000082E0CD0102E0DD10DE0FEF747FB0546F8
:103B30000CE0894D0AE0FEF76DFB054606E04FF408
:103B4000004503E000BF4FF0010B00BF00BF002D98
:103B50000AD0606800EB4000A84203D86068000308
:103B6000A84202D24FF0010B23E1042E2ED003DC39
:103B70003EB1022E51D118E0082E3CD0102E4CD16F
:103B80004CE0FEF71BFB4FF48071A0FB0130616835
:103B900049085F1840F10001D4F804C062460023D0
:103BA0003846FCF70DFB05463BE0D4F804C04FEA6D
:103BB0005C000021694BC71841EB010862460B46C7
:103BC00038464146FCF7FCFA05462AE0FEF722FBA0
:103BD0004FF48071A0FB0130616849085F1840F123
:103BE0000001D4F804C0624600233846FCF7E8FA26
:103BF000054616E022E0D4F804C04FEA5C0000213C
:103C00004FF40003C71841EB010862460B463846E3
:103C10004146FCF7D5FA054603E000BF4FF0010B23
:103C200000BF00BFB5F5407F05D3B5F5801F02D2B8
:103C30002068C560BDE04FF0010BBAE0E069B0F567
:103C4000004F54D1042E2BD005DC4EB1012E12D0E2
:103C5000022E3BD11AE0082E2DD0102E36D136E0A0
:103C6000FEF7ACFA4000616800EB5100B0FBF1F0E8
:103C70001FFA80FA2EE0FEF7B7FA4000616800EB09
:103C80005100B0FBF1F01FFA80FA23E0344960687C
:103C900001EB50006168B0FBF1F01FFA80FA19E007
:103CA000FEF7B8FA4000616800EB5100B0FBF1F09C
:103CB0001FFA80FA0EE04FF48031606801EB50008B
:103CC0006168B0FBF1F01FFA80FA03E000BF4FF02B
:103CD000010B00BF00BF4FF6F0700AEA0009CAF3FB
:103CE000420049EA00092068C0F80C9061E0042E07
:103CF00043D005DC4EB1012E12D0022E54D131E05A
:103D0000082E45D0102E4FD14FE0FEF757FA6168CC
:103D100000EB5100B0FBF1F080B22168C86047E0D1
:103D2000FEF762FA616800EB5100B0FBF1F080B27F
:103D30002168C8603CE0000000800040F369FFEFAC
:103D40000038014088100240004400400048004014
:103D5000004C0040005000400024F400000024F417
:103D60000048E8011449606801EB50006168B0FB4D
:103D7000F1F080B22168C8601AE0FEF74BFA616882
:103D800000EB5100B0FBF1F080B22168C8600FE099
:103D90004FF40041606801EB50006168B0FBF1F046
:103DA00080B22168C86003E000BF4FF0010B00BF84
:103DB00000BF5846BDE8F09F0024F4002DE9F04113
:103DC00004460D4617469846069E21E0701CF8B141
:103DD0002EB1FDF77FFDA0EB0800B04218D9206896
:103DE000006820F4D070216808602068806820F0A6
:103DF000010021688860202084F8690084F86A0046
:103E000000BF002084F8680000BF0320BDE8F081F7
:103E10002068C0692840A84201D1012000E00020AC
:103E2000B842D3D00020F1E700BFFEE70FB4084B43
:103E300010B504A902AA039800F0CEF8044602A91E
:103E4000002000F060FC204610BC5DF814FB000070
:103E50000747000802E008C8121F08C1002AFAD16B
:103E600070477047002001E001C1121F002AFBD1FA
:103E7000704700002DE9FF5FDDE90220010DDDF84C
:103E800038B0024318D044F61050A1F2FF3141433C
:103E90000D140F98012820D0A5EB0B00401C5FEA01
:103EA000000A4FF00004474EDFF81C91A046504630
:103EB00016D5CAF1000728E00F98012443A2012873
:103EC00008D0002100980F9BC0E90021C0E90243FF
:103ED000BDE8FF9F6FEA0B01F4E7CBF10000DEE7DE
:103EE000074612E0F80707D02246334640464946C7
:103EF000FCF7D0FA804689462246334610461946DA
:103F0000FCF7C8FA04460E467F10002FEAD1DDE91F
:103F10000201BAF1000F42464B4602DAFCF7BAFA48
:103F200001E0FCF729FB04460E460022284BFCF773
:103F3000ABFB03D84FF0FF30014607E00022254BD2
:103F400020463146FCF7FFF9FCF785FB102409E019
:103F5000002C0ADB0A220023FCF732F9019B3032E5
:103F60001A55641E50EA0102F2D1641C019AC4F190
:103F7000110314440F9A012A03D0012208430DD1E2
:103F80000AE0084304D000204FF0110B0F9080E7A7
:103F9000A3EB0B056D1E0DE05B4504DD4FF0000249
:103FA00005F1010504E003DA4FF00002A5F1010577
:103FB000002AECD000980F99C0E90231C0E9004511
:103FC00086E70000000024400000F03F30000000C1
:103FD0000000F0430000E03F2DE9FF4F95B09B4605
:103FE0008946064600250FE2252877D1002427467A
:103FF000F84A0121059400E0044316F8013F203BF4
:1040000001FA03F01042F7D130782A2811D06FF06E
:104010002F033078A0F13002092A16D8059A44F00F
:10402000020402EB820203EB42021044761C05906C
:10403000EFE759F8042B0592002A03DA504244F4C2
:104040000054059044F00204761C30782E2816D1D6
:1040500016F8010F44F004042A280DD06FF02F0247
:104060003078A0F13003092B09D807EB870302EB66
:104070004303C718761CF3E759F8047B761C3078A5
:104080006C280FD006DC4C2817D068280DD06A2881
:1040900014D104E0742810D07A280FD10DE044F434
:1040A00000140AE044F4801401E044F440147278EF
:1040B000824202D104F58014761C761C3078662882
:1040C0000BD013DC582877D009DC002875D04528A0
:1040D000F6D04628F4D047281AD19DE118E063288D
:1040E00035D0642879D0652812D195E1702873D035
:1040F00008DC6728F1D069286FD06E280DD06F28B2
:1041000006D1B5E073282CD0752875D0782874D0E6
:104110005A46179990476D1C75E1C4F30250022866
:1041200009D003280DD0D9F8001004280DD00D6057
:1041300009F1040967E1D9F80010EA17C1E9005252
:10414000F6E7D9F800100D80F2E70D70F0E719F8E6
:10415000041B8DF8001000208DF80100EA460120B4
:1041600003E059F804AB4FF0FF3061074FF0000156
:1041700002D40DE008F101018846B9420FDA80450A
:10418000F8DB1AF808100029F4D108E008F1010161
:1041900088468142FADB1AF808100029F6D1059802
:1041A0005B46A0EB080721463846179A00F094FAC0
:1041B000284400EB080507E04DE029E10DE01AF87E
:1041C000010B5A4617999047B8F10108F7D25B46A0
:1041D00021463846179A13E142E00A220092C4F3BE
:1041E00002524FF0000A022A08D059F804CB032AE1
:1041F0004FEAEC710AD00DE029E02AE009F107014D
:1042000021F00702F2E802C1914609E00FFA8CFCA6
:104210004FEAEC71042A03D14FFA8CFC4FEAEC719F
:10422000002907DA0A460021DCF1000C61EB0201EB
:104230002D2202E0220504D52B228DF80420012234
:1042400003E0E20701D02022F7E7904659E00A2177
:1042500002E010220DE010214FF0000A00910BE067
:1042600010224FF0000A44F004040827009203E0F3
:1042700008224FF0000A0092C4F30252022A05D02D
:1042800059F804CB0021032A08D009E009F10701FD
:1042900021F00702F2E802C1914605E01FFA8CFC0A
:1042A000042A01D10CF0FF0C4FF00008220728D59A
:1042B000702806D0009B83F0100353EA0A0305D050
:1042C0000EE040228DF80420012208E05CEA0102A1
:1042D00006D030228DF804208DF805000222904689
:1042E000009B83F0080353EA0A030AD15CEA010247
:1042F00001D1620705D530228DF804204FF0010866
:104300007F1E582804D034A003900EA802900DE020
:1043100036A0F9E753466046009AFBF751FF844602
:104320000398825C0298401E029002705CEA0100D1
:10433000F0D1029806A9081A00F1200A600702D5F8
:1043400024F4803400E00127574502DDA7EB0A0082
:1043500000E0002000EB0A01009005984144401A5B
:104360000590E00306D45B462146179A059800F0B5
:10437000B3F90544002706E001A85A46C05D179925
:1043800090476D1C7F1C4745F6DBE0030CD55B4670
:104390002146179A059800F09FF9054404E0302063
:1043A0005A46179990476D1C0099481E00900029A5
:1043B000F5DC08E0029802995A460078491C0291FF
:1043C000179990476D1CBAF10001AAF1010AF1DCBE
:1043D00065E10000092801003031323334353637C9
:1043E0003839616263646566000000003031323341
:1043F00034353637383941424344454600000000E1
:1044000000F058F90544761C307800287FF4ECADB4
:1044100019B02846BDE8F08F620700D4062709F1DD
:10442000070222F0070CFCE80223E14603F00048F3
:104430005FEA080C02D00FF2702C0DE05FEA045C1A
:1044400002D50FF2682C07E05FEAC47C02D00FF2BD
:10445000602C01E0AFF2700C4FF0FF3823F0004306
:10446000CDF850C065280CD006DC452809D0462878
:104470001DD047283DD13DE0662818D067287ED161
:1044800038E00021112F01DB112000E0781CCDE97C
:10449000000106A90EA8FFF7EDFCDDE90F010E9A59
:1044A00003910021009207F1010A04914DE04FF0C1
:1044B00000400097CDE9011006A90EA8FFF7DAFC2D
:1044C000DDE90F0203920E9B11990022DDF80CA08A
:1044D0000093049211B9791C00EB010AB7EB0A00B2
:1044E00004D4C0F1FF3007F1010A0490AAEB0700E1
:1044F000019044E0012F00DA01270021112F01DD96
:10450000112000E03846CDE9000106A90EA8FFF70A
:10451000B1FCDDE90F010E9A039100210491009294
:10452000BA4621070CD40399514500DA8A46BAF1FC
:10453000010F05DD009AAAF10101515C302908D074
:10454000B84202DA10F1040F06DA0121CDE90110B8
:1045500015E0AAF10101E9E7002805DC049901440E
:104560000491AAEB000102E0411C514500DD8A469E
:104570000499401A401C01904FF00040029020071F
:1045800004D40198504501DBCDF8048000208DF85B
:104590004F0002980DF14F07B0F1004F25D02B20AE
:1045A0000E9002984FF0020800280CDA4042029068
:1045B0002D200E9007E00A210298FBF78FFE303184
:1045C000029007F8011DB8F10001A8F10108F2DC22
:1045D00002980028EFD1791E0E980870307800F00C
:1045E000200040F0450007F8020D12A8C01B00F1A2
:1045F00007081498007800B1012000EB0A01019827
:1046000001EBE07105984144401A401E0590E0031B
:1046100006D45B462146179A059800F05DF80544DC
:104620001498007818B15A46179990476D1CE0030A
:1046300024D55B462146179A059800F04DF80544AD
:104640001CE00498002807DBDDE90301884203DD54
:104650000098405C179901E0179930205A4690471E
:10466000049805F10105401C04900198401E01903A
:1046700004D12E205A46179990476D1CBAF10001BB
:10468000AAF1010ADDDC05E017F8010B5A4617997B
:1046900090476D1CB8F10001A8F10108F4DC5B46FD
:1046A0002146179A0598ABE62D0000002B0000006C
:1046B000200000002DE9F041044600251E46174663
:1046C000880404D405E039462020B0476D1C641EE0
:1046D000F9D52846BDE8F0812DE9F04104460025D2
:1046E0001E469046C80301D5302700E020278804E5
:1046F00004D505E041463846B0476D1C641EF9D527
:104700002846BDE8F0810A68531C0B6010707047A2
:104710002DE9F04704460D4616461F46DDE9088997
:104720002580A660E76005EB090041004046FBF7E5
:10473000B0FDC4F80480BDE8F0872DE9FF4F91B0CB
:104740000026DDF84490B9F80090CDF82490DDF80B
:104750005090CDF82C90DDF84490D9F8045068E1E1
:10476000DDF8489039F902CBCDF848902C4629461F
:104770004FF00009CDF83090CDF83490DDF844903A
:10478000D9F80C70DDF84490D9F8080034F9026BC0
:10479000B0F8009019FB06F9ACEBE93202F30F0216
:1047A00030F9029B09FB02F906EBE93303F30F032F
:1047B0000FFA83F921F8029B37F9029B09FB03F9F1
:1047C0004FEAE97EDDE90CAB19EB0A094EEB0B0E63
:1047D000CDE90C9E9446DDF82490A9F101094FEA39
:1047E0009909CDF82890B5E034F9026BB0F8009043
:1047F00019FB06F9ACEBE93202F30F0230F9029B28
:1048000009FB02F906EBE93303F30F09CDF84090F9
:10481000DDF8409021F8029B34F9026BB0F800906B
:1048200019FB06F9A2EBE93C0CF30F0C30F9029BE3
:1048300009FB0CF906EBE93303F30F09CDF83C90C3
:10484000DDF83C9021F8029B57F8049BCDF81C90B2
:10485000DDE90FA96AF31F494B46DDE90C9ACDE962
:10486000009ACDE904A3DDF81C90CDF81890DDF88E
:104870000090CA46DDF810B0DDF81890C3FBC9AB54
:10488000D946CDE903AB4FF0000BDE464BEA0A0BED
:1048900049EA0E09CDE90CB934F9026BB0F8009081
:1048A00019FB06F9ACEBE93202F30F0230F9029B77
:1048B00009FB02F906EBE93303F30F09CDF8409049
:1048C000DDF8409021F8029B34F9026BB0F80090BB
:1048D00019FB06F9A2EBE93C0CF30F0C30F9029B33
:1048E00009FB0CF906EBE93303F30F09CDF83C9013
:1048F000DDF83C9021F8029B57F8049BCDF81C9002
:10490000DDE90FA96AF31F494B46DDE90C9ACDE9B1
:10491000009ACDE904A3DDF81C90CDF81890DDF8DD
:104920000090CA46DDF810B0DDF81890C3FBC9ABA3
:10493000D946CDE903AB4FF0000BDE464BEA0A0B3C
:1049400049EA0E09CDE90CB9DDF82890A9F1010971
:10495000CDF82890DDF82890B9F1000F7FF444AF2E
:104960006246DDF82490A9F1010909F00309CDF8A8
:1049700028902AE034F9026BB0F8009019FB06F990
:10498000ACEBE93202F30F0230F9029B09FB02F9AA
:1049900006EBE93303F30F0337F9029B09FB03F935
:1049A0004FEAE97EDDE90CAB19EB0A094EEB0B0E81
:1049B000CDE90C9E0FFA83F921F8029B9446DDF8AD
:1049C0002890A9F10109CDF82890DDF82890B9F1D7
:1049D000000FCFD137F9029B09FB02F94FEAE97EBC
:1049E000DDE90CAB19EB0A094EEB0B0ECDE90C9E81
:1049F000DDE90C9A4FEAD93949EA4A4909F30F0926
:104A0000CDF820900FFA82F921F8029BDDF84CA036
:104A1000DDF82090AAF80090DDF84C9009F1020929
:104A2000CDF84C90AD1CDDF82C90A9F10109CDF822
:104A30002C90DDF82C90B9F1000F7FF491AEDDF8E9
:104A40004490D9F80480DDF84490D9F804A0DDF84A
:104A500050900AEB4905DDF824904FEA9909CDF80A
:104A600038900DE055F8049B48F8049B55F8049BDA
:104A700048F8049BDDF83890A9F10109CDF8389089
:104A8000DDF83890B9F1000FECD1DDF8249009F091
:104A90000309CDF8389009E035F8029B28F8029B0D
:104AA000DDF83890A9F10109CDF83890DDF838909B
:104AB000B9F1000FF0D115B0BDE8F08F2DE9F04F3E
:104AC00086B09C464FEA9C0337E050F8044B51F8FF
:104AD000046B50F8045B51F8047B14FB36FACDF8F4
:104AE0000CA014FB06FACDF808A015FB37FACDF898
:104AF00004A015FB07FACDF800A0DDF80CA02AF3FE
:104B0000CF38DDF808A02AF3CF39DDF804A02AF366
:104B1000CF3BCDF814B0DDF800A02AF3CF3ACDF8A2
:104B200010A0CA4668F31F4A42F804ABDDE904ABA3
:104B30006BF31F4A42F804AB5B1E002BC5D10CF08F
:104B400003030AE030F802AB31F802BB1AFB0BFAA0
:104B50002AF3CF3A22F802AB5B1E002BF2D106B04B
:104B6000BDE8F08F70B50446134620469A0830E041
:104B700030F9025B00EE105AB8EEC00ADFED1F0AF2
:104B800080EE201AA1EC011A30F9025B00EE105AF7
:104B9000B8EEC00ADFED190A80EE201AA1EC011A66
:104BA00030F9025B00EE105AB8EEC00ADFED130ACE
:104BB00080EE201AA1EC011A30F9025B00EE105AC7
:104BC000B8EEC00ADFED0D0A80EE201AA1EC011A42
:104BD000521E002ACCD103F003020CE030F9025B34
:104BE00000EE105AB8EEC00ADFED040A80EE201A7B
:104BF000A1EC011A521E002AF0D170BD000000473E
:104C00002DE9F74F82B005460E4600210F46884633
:104C10004FEA960A27E055F8044B4046A3463A4629
:104C2000134684465946C1FBC13C1A4660460023E0
:104C3000CDE9007843EA02074CEA030855F8044B33
:104C40004046A3463A46134684465946C1FBC13CFA
:104C50001A4660460023CDE9007843EA02074CEA91
:104C60000308AAF1010ABAF1000FD4D106F0030A31
:104C700014E035F9029B404649468B463A461346B6
:104C80008446C1FBC13C1A4660460023CDE900784A
:104C900043EA02074CEA0308AAF1010ABAF1000F3D
:104CA000E7D13246002338464146FBF7BAFA0009FD
:104CB00040EA017000F30F0B5846049900F004F825
:104CC00005B0BDE8F08F00002DE9F84106460F461B
:104CD0003346002B75DDB3FA83F0A0F111010846CD
:104CE00001EBD0784FEA6808A1EB4808B8F1000F53
:104CF00003D103FA01F003B203E0481E03FA00F007
:104D000003B25D101C4600EE903AF8EEE00A9FED0B
:104D1000351A60EE810AB0EE600A8DED000ADDF80A
:104D200000C03148A0EB6C0CCDF800C0DDED000AEE
:104D3000B0EE600ADFED2D0A60EE200AFDEEE00A1B
:104D400010EE900A02B212FB02F0C01300B26843E8
:104D5000C01300B2C0F540505043C013800002B2EF
:104D600012FB02F0C01300B26843C01300B2C0F5DA
:104D700040505043C013800002B212FB02F0C01337
:104D800000B26843C01300B2C0F540505043C01396
:104D9000800002B2234604FB02F0C013400002B2BE
:104DA000084601EBD0784FEA6808A1EB4808B8F153
:104DB000000F07D101EBD0784FEA680842FA08F2F9
:104DC00007E00AE0481E00EBD0784FEA680842FA94
:104DD00008F23A800020BDE8F88100203880401EAB
:104DE000F9E7000000000038DF59375F0000804617
:104DF00008B5FCF77DFD00BF0E48806D40F0805087
:104E00000C4988650846806D00F08050009000BF16
:104E100000BFFEF7B2FBFEF7A1F8FEF73BF806482D
:104E2000FEF738FDFBF792FDFBF7F2FE00E030BF26
:104E3000FDE7000000100240140000202DE9F043BF
:104E4000B3B006460F46C82101A8FBF722FA002599
:104E5000A846A9466C1F19E004F1960007EB400133
:104E6000642301AA06F59670FFF728FE002005E0EE
:104E700001A931F8101029440DB2401C9628F7DB27
:104E8000454500DBA146A8460025641C052CE3DB54
:104E90004FFA89F033B0BDE8F083F76046308F7D7C
:104EA0002932150174FE31FDCE028002F760EAB9A5
:104EB000957D32B715013F028BFEB8FC0F017F7C58
:104EC0003E80FA7F32800C0030003000000000008D
:104ED000D37F0180FF7F01800100000000000000FF
:104EE00000000000CE0BAFBEE413DDBD4FD43E404A
:104EF00060F204406F562B405D9C12402270494086
:104F0000B65FF53EE203B73F3B0BC0BD684B83BEC7
:104F1000195217BE3BE758BF69DBE43DCBBA4F3DA2
:104F200073B1403D9E58C13D0000000000000000EC
:104F300000000000DD8EC03F767E11C077022CC0DD
:104F400017BD9E3F36CB53BEEC770640C7CEA3BFFE
:104F50001F2C0EBF670B17C038BBD1BF997D2AC06D
:104F6000F7BBF0BF264942BF24138DBEADEFABBDEA
:104F70004F7CAB3D13615CBDFF41CB3BEBFD773C10
:104F80004BBA1CBF22BF8FBED17A38BF8384EC3F9F
:104F90006BBD9C3E07899DBFB33887BFC18B8FBF58
:104FA000934D91BF7EDDD9BF56D6E6BFAC4591BFCC
:104FB000FDEC3EBFB0605CBDF44BD8BDDDA3E8BCEA
:104FC000A8DBC2BCF7639FBD8A8C52BD0000000005
:104FD00000000000010203040607080900000000A9
:104FE00001020304A0860100400D0300801A0600A0
:104FF00000350C0040420F0080841E0000093D0077
:1050000000127A000024F40000366E010048E80126
:10501000006CDC0234500008000000201400000086
:10502000543E00084850000814000020FC3A0100DB
:10503000643E0008000000000000000000093D0080
:08504000000000000000000068
:040000050800018965
:00000001FF
